{
  "contractName": "StarWarsPoll",
  "abi": [
    {
      "inputs": [],
      "payable": false,
      "stateMutability": "nonpayable",
      "type": "constructor"
    },
    {
      "constant": false,
      "inputs": [
        {
          "internalType": "uint256",
          "name": "id",
          "type": "uint256"
        }
      ],
      "name": "castVote",
      "outputs": [],
      "payable": false,
      "stateMutability": "nonpayable",
      "type": "function"
    },
    {
      "constant": true,
      "inputs": [],
      "name": "hasAddressVoted",
      "outputs": [
        {
          "internalType": "bool",
          "name": "",
          "type": "bool"
        }
      ],
      "payable": false,
      "stateMutability": "view",
      "type": "function"
    },
    {
      "constant": true,
      "inputs": [],
      "name": "getAll",
      "outputs": [
        {
          "internalType": "uint256[]",
          "name": "",
          "type": "uint256[]"
        }
      ],
      "payable": false,
      "stateMutability": "view",
      "type": "function"
    },
    {
      "constant": false,
      "inputs": [
        {
          "internalType": "uint256",
          "name": "numCharacters",
          "type": "uint256"
        }
      ],
      "name": "setTotalCharacters",
      "outputs": [],
      "payable": false,
      "stateMutability": "nonpayable",
      "type": "function"
    },
    {
      "constant": true,
      "inputs": [],
      "name": "getTotalCharacters",
      "outputs": [
        {
          "internalType": "uint256",
          "name": "",
          "type": "uint256"
        }
      ],
      "payable": false,
      "stateMutability": "view",
      "type": "function"
    }
  ],
  "bytecode": "0x608060405234801561001057600080fd5b50600080819055506104da806100276000396000f3fe608060405234801561001057600080fd5b50600436106100575760003560e01c80633eb76b9c1461005c57806353ed51431461008a57806392893fb9146100e9578063c0984d821461010b578063ceebb28314610139575b600080fd5b6100886004803603602081101561007257600080fd5b8101908080359060200190929190505050610157565b005b610092610294565b6040518080602001828103825283818151815260200191508051906020019060200280838360005b838110156100d55780820151818401526020810190506100ba565b505050509050019250505060405180910390f35b6100f1610378565b604051808215151515815260200191505060405180910390f35b6101376004803603602081101561012157600080fd5b81019080803590602001909291905050506103cc565b005b610141610431565b6040518082815260200191505060405180910390f35b600160003373ffffffffffffffffffffffffffffffffffffffff1673ffffffffffffffffffffffffffffffffffffffff16815260200190815260200160002060009054906101000a900460ff1615610217576040517f08c379a000000000000000000000000000000000000000000000000000000000815260040180806020018281038252601e8152602001807f5468697320616464726573732068617320616c726561647920766f746564000081525060200191505060405180910390fd5b600260008281526020019081526020016000206000815480929190600101919050555060018060003373ffffffffffffffffffffffffffffffffffffffff1673ffffffffffffffffffffffffffffffffffffffff16815260200190815260200160002060006101000a81548160ff02191690831515021790555050565b60606000805414156102f1576040517f08c379a000000000000000000000000000000000000000000000000000000000815260040180806020018281038252602f81526020018061043b602f913960400191505060405180910390fd5b60606000546040519080825280602002602001820160405280156103245781602001602082028038833980820191505090505b50905060008090505b60005481101561037057600260008281526020019081526020016000205482828151811061035757fe5b602002602001018181525050808060010191505061032d565b508091505090565b6000600160003373ffffffffffffffffffffffffffffffffffffffff1673ffffffffffffffffffffffffffffffffffffffff16815260200190815260200160002060009054906101000a900460ff16905090565b600054811415610427576040517f08c379a000000000000000000000000000000000000000000000000000000000815260040180806020018281038252603c81526020018061046a603c913960400191505060405180910390fd5b8060008190555050565b6000805490509056fe546865726520617265206e6f206368617261637465727320746f20766f746520666f7220696e2074686520706f6f6c54686520416d6f756e74206f66204368617261637465727320497320616c726561647920736574206174207468652076616c756520656e7465726564a265627a7a723158209d19b6c9db14bc3eea4c36ab4354d8cc2a470caf92e63a6fe1506f107caeedf064736f6c63430005100032",
  "source": "// SPDX-License-Identifier: GPL-3.0\r\npragma solidity >=0.4.16 <0.9.0;\r\n\r\ncontract StarWarsPoll {\r\n    //Total Number of Characters in the Poll\r\n    uint256 private totalCharacters;\r\n\r\n    // Read/write\r\n    mapping(address => bool) private addressVoted; //Address and has voted\r\n\r\n    //Read/write\r\n    mapping(uint256 => uint256) private candidates; //Id and vote count\r\n\r\n    constructor() public {\r\n        totalCharacters = 0;\r\n    }\r\n\r\n    //Cast a vote\r\n    function castVote(uint256 id) public {\r\n        //Checking that the address has not voted before\r\n        require(!addressVoted[msg.sender], \"This address has already voted\");\r\n        //Get the mapping of the id and vote count\r\n        candidates[id]++;\r\n        //Setting the address value to voted\r\n        addressVoted[msg.sender] = true;\r\n    }\r\n\r\n    //Has the address already voted - CheckIfAccountVoted()\r\n    function hasAddressVoted() public view returns (bool) {\r\n        return addressVoted[msg.sender];\r\n    }\r\n\r\n    //Get top three highest vote counts\r\n    function getAll() public view returns (uint[] memory) {\r\n        require(totalCharacters != 0,\"There are no characters to vote for in the pool\");\r\n        uint[] memory ret = new uint[](totalCharacters);\r\n        for (uint256 i = 0; i < totalCharacters; i++) {\r\n            ret[i] = candidates[i];\r\n        }\r\n        return ret;\r\n    }\r\n\r\n    function setTotalCharacters(uint256 numCharacters) public {\r\n        require(\r\n            numCharacters != totalCharacters,\r\n            \"The Amount of Characters Is already set at the value entered\"\r\n        );\r\n\r\n        //Setting the number of characters in the poll\r\n        totalCharacters = numCharacters;\r\n    }\r\n\r\n    function getTotalCharacters() public view returns (uint256) {\r\n        return totalCharacters;\r\n    }\r\n}\r\n",
  "sourcePath": "C:/Users/mason/Desktop/Programming/StarWarsVotingDapp/contracts/StarWarsPoll.sol",
  "compiler": {
    "name": "solc",
    "version": "0.5.16+commit.9c3226ce.Emscripten.clang"
  },
  "schemaVersion": "3.3.3",
  "updatedAt": "2021-01-24T23:32:43.113Z",
  "networkType": "ethereum",
  "devdoc": {
    "methods": {}
  },
  "userdoc": {
    "methods": {}
  }
}